:100000000C942A000C943F000C943F000C943F0089
:100010000C943F000C943F000C943F000C943F0064
:100020000C943F000C943F000C943F000C943F0054
:100030000C943F000C943F000C943F000C943F0044
:100040000C943F000C943F000C943F000C943F0034
:100050000C943F0011241FBECFE5D8E0DEBFCDBF1A
:1000600010E0A0E6B0E0E6EDF7E002C005900D92EA
:10007000A238B107D9F70E9427020C94E9030C9427
:100080000000CF93DF931F92CDB7DEB70097C9F082
:10009000FC019081292F27708981887F822B96957A
:1000A000969596959770990F990F990F877C892B44
:1000B0008F7B8F778983CE0101960E944E0381E06A
:1000C00001C080E00F90DF91CF910895EF92FF92F1
:1000D0000F931F93CF93DF9300D0CDB7DEB721E00E
:1000E000FB01208319820097E9F161157105E1F1A7
:1000F0008B017C01FC012081822F87709A81987F7F
:10010000982B2695269526952770220F220F220FD1
:10011000977C922B9F7B9F779A83BE016F5F7F4F67
:10012000CE0102960E946303F7019081292F20746B
:1001300096FF0AC09981913019F4F801108215C018
:1001400091E0F801908311C021110AC099819111A9
:1001500003C0F801108209C091E0F801908305C046
:1001600080E003C080E001C080E00F900F90DF913D
:10017000CF911F910F91FF90EF900895CF93DF9350
:100180001F92CDB7DEB70097E9F0FC012081922FD6
:1001900097708981887F892B922F96959695969551
:1001A0009770990F990F990F877C892B26FB22272F
:1001B00020F9806420FB87F98983CE0101960E9493
:1001C0004E0301C080E00F90DF91CF910895CF934F
:1001D000DF931F92CDB7DEB70097F1F0FC012081CD
:1001E000922F97708981887F892B922F969596956B
:1001F00096959770990F990F990F877C892B26FBFD
:10020000222720F9806420FB87F9898360E0CE01F2
:1002100001960E94050301C080E00F90DF91CF910D
:100220000895CF93DF931F92CDB7DEB70097F1F01B
:10023000FC012081922F97708981887F892B922FD2
:100240009695969596959770990F990F990F877C2B
:10025000892B26FB222720F9806420FB87F98983DC
:1002600061E0CE0101960E94050301C080E00F907D
:10027000DF91CF910895CF93DF931F92CDB7DEB773
:100280000097E9F0FC012081922F97708981887F87
:10029000892B922F9695969596959770990F990F11
:1002A000990F877C892B26FB222720F9806420FB6D
:1002B00087F98983CE0101960E94880301C080E0FE
:1002C0000F90DF91CF910895CF93DF9300D0CDB7FA
:1002D000DEB7009791F1FC012081822F87709A810F
:1002E000987F982B2695269526952770220F220F0A
:1002F000220F977C922B90649F779A832181822F83
:1003000087709981987F982B26952695269527703A
:10031000220F220F220F977C922B90649F77998354
:10032000CF0102960E944E03CE0102960E944E0318
:10033000CE0101960E944E0301C080E00F900F9005
:10034000DF91CF910895CF93DF9300D0CDB7DEB783
:100350000097A9F1FC012081822F87709A81987FF4
:10036000982B2695269526952770220F220F220F6F
:10037000977C922B90649F779A832181822F87703C
:100380009981987F982B2695269526952770220F80
:10039000220F220F977C922B90649F77998361E0C4
:1003A000CF0102960E94050361E0CE0102960E94F1
:1003B000050360E0CE0101960E94050301C080E0C4
:1003C0000F900F90DF91CF910895CF93DF9300D0DE
:1003D000CDB7DEB70097A9F1FC012081822F87708D
:1003E0009A81987F982B2695269526952770220F1F
:1003F000220F220F977C922B90649F779A83218102
:10040000822F87709981987F982B2695269526951F
:100410002770220F220F220F977C922B90649F77D8
:10042000998361E0CF0102960E94050360E0CE014E
:1004300002960E94050360E0CE0101960E9405032A
:1004400001C080E00F900F90DF91CF910895CF937E
:10045000DF93CDB7DEB72A970FB6F894DEBF0FBE95
:10046000CDBF8981887F886089831A828AE08B83E7
:100470008C81807C80648F778C831D821E821F829A
:1004800083E08D838E81887F8360877C88608E8304
:100490008F81887F8360877C806280648F8382E025
:1004A000888781E48987CE0104960E944E03CE019D
:1004B00005960E946401CE0108960E94BE00CE01FE
:1004C00003960E94BE00CE0109960E944100CE0113
:1004D00001960E94AA0360ECCE0101960E94D70308
:1004E00091E09A87811104C0CE0103960E94110108
:1004F00000E010E015C0F801E05AFF4F6081609500
:100500006083CE0101960E94D7032FEF84E39CE025
:10051000215080409040E1F700C000000F5F1F4F66
:100520000A30110544F3BE01665F7F4FCE01099684
:100530000E9466008A85811112C0CE0105960E9434
:10054000A301CE0108960E943B012FEF80E792E0C5
:10055000215080409040E1F700C00000E4CFCE0180
:1005600008960E94E700CE0105960E94E501DBCFC8
:10057000009709F442C0FC012081277030E024304C
:100580003105ECF54081469546954695477050E01B
:1005900047305105B4F5808186FB992790F986FF95
:1005A00003C09130B1F02FC0220F331FF901E6587C
:1005B000FF4F0190F081E02D208181E090E002C0AA
:1005C000880F991F4A95E2F780958223808381E006
:1005D0000895220F331FF901E658FF4F0190F08173
:1005E000E02D208181E090E002C0880F991F4A959C
:1005F000E2F7822B808381E0089580E0089580E017
:10060000089580E0089580E00895009709F442C0BD
:10061000662319F0613001F13FC0FC018081E82FB1
:10062000E770F0E0EE0FFF1FE659FF4F0190F081F9
:10063000E02D4081869586958695877021E030E093
:10064000B90102C0660F771F8A95E2F7CB0180954A
:100650008423808381E00895FC018081E82FE77086
:10066000F0E0EE0FFF1FE659FF4F0190F081E02D03
:100670004081869586958695877021E030E0B901A6
:1006800002C0660F771F8A95E2F7CB01842B808327
:1006900081E0089580E0089580E00895CF93DF938E
:1006A000009769F0EC010E94B802988196FF08C09B
:1006B00097FB662760F9CE010E94050301C080E028
:1006C000DF91CF9108950097F9F061157105F1F070
:1006D000FC012081E22FE770F0E0EE0FFF1FEE58E3
:1006E000FF4F0190F081E02D80812695269526957B
:1006F000277090E002C0959587952A95E2F7817062
:10070000FB01808381E0089580E0089580E00895F2
:100710000097F1F0FC018081E82FE770F0E0EE0F28
:10072000FF1FE659FF4F0190F081E02D4081869533
:1007300086958695877021E030E0B90102C0660F8A
:10074000771F8A95E2F7CB018427808381E00895A3
:1007500080E00895009739F1DC012C9123FB3327C9
:1007600030F923FF03C0313079F01FC0DC01EC9178
:10077000E770F0E0EE0FFF1FE658FF4F0190F081A9
:10078000E02D108281E00895DC01EC91E770F0E04B
:10079000EE0FFF1FE658FF4F0190F081E02D8FEF25
:1007A000808381E0089580E0089580E008950097B7
:1007B00071F0DC01EC91E770F0E0EE0FFF1FE659FD
:1007C000FF4F0190F081E02D608381E0089580E08B
:0607D0000895F894FFCF2C
:1007D600C0F9A4B0999282F880903B0038003500A9
:1007E600320039003600330030003A00370034005A
:0207F6003100D0
:00000001FF
